:10000000F1EF03F00000000000EF00F0000000003E
:0A0010000000000000000000F3D71C
:06001C00000000001200CC
:100022000F0E0C6E470E0D6E0D2EFED70C2EFCD74A
:06003200000000001200B6
:0A003800210E0D6E0D2EFED71200F2
:100042000B840BAE2CEF00F0010E036E026A016A04
:0A005200006A0A360232FF0E1200A7
:08005C000AAE029E000E120024
:1000640037BE02D08A9601D08A8637BC02D08A94E1
:1000740001D08A8437BA02D08A9201D08A8237B8F2
:1000840002D08A9001D08A8022B002D08A8801D01E
:100094008A988A8AC1DF8A9A37B602D08A9601D0B2
:1000A4008A8637B402D08A9401D08A8437B202D0C7
:1000B4008A9201D08A8237B002D08A9001D08A8095
:1000C40022B002D08A8801D08A988A8AA5DF8A9AC7
:0C00D40022A002D0A4DF01D0ADDF12009A
:0E00E000026A016A006A086A036A000E1200D2
:0800EE000B6A0B86FF0E1200E5
:1000F6000C6A0E6A0250D8A494EF00F001C002F018
:1001060000C001F0006A0E860250D8A494EF00F0F9
:1001160001C002F0016A0E960E880250D8B4A6EF0E
:1001260000F00E50035ED8A4D8A0ABEF00F0D89034
:1001360002BEB0EF00F0003601360236032E9BEF0A
:1001460000F0ABEF00F0010E0C6EC7DFB3EF00F06E
:10015600020E0C6E73DFB3EF00F0040E0C6E7BDF45
:02016600120085
:100168000134083609360450085E0550D8A0053C0D
:10017800095E003601360F0E0C6E0134083609365A
:10018800045000A006D0085E0550D8A0053C095EC2
:1001980005D008260550D8B0053C0926003601369A
:1001A8000C2EEBD700B006D0045008260550D8B066
:0801B800053C092600001200BD
:1001C0000B820BAEEAEF00F003680268016800687A
:0801D0000A360232FF0E120094
:0C01D800229036C037F042DF2280120077
:0C01E4000E0E0D6E0D2EFED70000120056
:1001F0000B800BAE04EF01F0026A0AAEFF0E026E36
:0C020000016E006E0A360232FF0E120082
:10020C000900F5CFE6FF0006FBE10106F9E112005B
:10021C000FD0800E316E19D0C00E316E16D0940EE8
:10022C00316E13D0D40E316E10D0800E316E0DD0D5
:10023C003150010AEEE03150020AEEE03150030A6F
:10024C00EEE03150040AEEE0F0D73204006E31508B
:10025C00002600C031F000C037F0FEDE2290356A77
:10026C0035503324E96E000E3420EA6EEE520BE06A
:10027C0035503324E96E000E3420EA6EEECF36F0A2
:0A028C00A5DF352AEDD7228012000D
:10029600939A939893909392939493968A9A8A9822
:1002A6008A968A948A928A90B9DEB8DEB7DE8A8206
:1002B6008A808A8AB0DE8A9AB1DE8A8AACDE8A9A17
:1002C600ADDE8A8AA8DE8A9AA9DE8A908A8AA3DEA9
:1002D6008A9AA4DE8A8A9FDE8A9A8A928A868A8A7D
:1002E6009ADE8A9A9BDE8A968A808A8A94DE8A9A1F
:1002F6008A908A8A90DE8A9A91DE8A8A8CDE8A9A27
:100306008A808A8A88DE8A9A89DE8A908A8A83DE49
:100316008A9A8A868A848A828A808A8A7CDE8A9AED
:060326007DDE22801200C2
:10032C000450000A12E10550000A0FE10650000AC1
:10033C000CE10750000A09E1FF0E006EFF0E016E82
:10034C007F0E026EFF0E036EA4D0086A096A075076
:10035C00D8B441EF02F00350D8B445EF02F002508C
:10036C0006180A6E028E068E0E6A02C008F001C0D4
:10037C000CF000C00DF004500D5E0550D8A0053CEB
:10038C000C5E0650D8A0063C085E086A0C6A0D6A22
:10039C00D8A0D8EF01F0D8900232013200320832E6
:1003AC00010E0E6E0750035ED8A0E5EF01F07E0E35
:1003BC000E240326D8B049EF02F0EBEF01F07E0ECD
:1003CC000E240326D8A04DEF02F0180E0B6E0D363E
:1003DC000C3608360036013602360E360450005EF6
:1003EC000550D8A0053C015E0650D8A0063C025E24
:1003FC0006340E120EA006EF02F00D8011EF02F083
:10040C00045000260550D8B0053C01260650D8B043
:10041C00062802260D900B2EEDEF01F037EF02F0BF
:10042C00D8900036013602360E360450005E055068
:10043C00D8A0053C015E0650D8A0063C025E0634EE
:10044C000E10010B0D26D8B00C2AD8B4082AD8A44B
:10045C0037EF02F008320C320D32032AD8B449EFD0
:10046C0002F00AAE089E0850026E0C50016E0D5040
:10047C00006E4FEF02F0010E34DE4FEF02F0020E71
:10048C0029DE4FEF02F0040E95DE4FEF02F0080E5E
:04049C00D2DD12009B
:1004A0000B6A0350D8B496EF02F002500A6E028E27
:1004B0008E0E035E03AE9AEF02F0036C080E035C2F
:1004C000D8A075EF02F0036E013602C001F0026A97
:1004D000080E035CD8A075EF02F0036E0136016AC6
:1004E0000350D8A4D8907FEF02F00350D8B47FEF28
:1004F00002F0D89002320132032E79EF02F00BBCE9
:1005000001A08CEF02F0D8A08CEF02F0012AD8B441
:10051000022A02BEA9EF02F00AAEAEEF02F0021EFE
:10052000011E012AD8B4022AAEEF02F0026A016A63
:10053000AEEF02F00B800BAEB2EF02F0026A0AAE31
:10054000B2EF02F0FF0E026E016E0A360232B2EF17
:1005500002F0010E0C6E4CDEB4EF02F0000E0C6ED9
:10056000B4EF02F0FF0E0C6E0150006E0250016EEF
:02057000120077
:100572000450000A08E10550000A05E1FF0E006E72
:100582007F0E016E57D00D6A096A086A0150001089
:10059200D8B4000C015005180A6E0ABE0D1E0B6A73
:1005A20005AE05D0041E051E042AD8B4052A01AEE4
:1005B20005D0001E011E002AD8B4012A01500510E0
:1005C2000A6E0ABE10D0CFDD0BB020D00DAE000CEB
:1005D200001E011E002AD8B4012A081E091E082A7C
:1005E200D8B4092A000C05AE0DD001BE07D00150C7
:1005F200096E0050086E016A006AE8D7016A006A53
:10060200002A000C011E001E0B2ADDD7082AD8B4CE
:10061200092A0450085CD8A4D9D70550095CD8A48B
:10062200D5D7096A086A002AD8B4012A01AECED702
:060632000000FF0C1200A5
:10063800086A096A000E07620364A1EF03F002501A
:1006480006180A6E075003267E0ED8A032EF03F074
:10065800035ED8B0A5EF03F036EF03F0035ED8A031
:10066800A9EF03F0028E068E02C00EF001C00BF057
:1006780000C00DF000500402F4CF0CF00150050248
:10068800F4CF00F0F3CF08F00402F3500C26F45036
:100698000822000E00220D500502F3500C26F450DB
:1006A8000822000E002202500402F3500826F450DB
:1006B800002202500502016A000E0122F3500026B2
:1006C800F45001220D500602F3500826F45000227F
:1006D800026A000E012202220B500602F350002685
:1006E800F4500122000E02220E500602F350012699
:1006F800F450022202BE89EF03F0083600360136B4
:1007080002360306D8B4A9EF03F09CEF03F0D880B3
:10071800800E08640030000E002201220222D8A0B8
:100728009CEF03F0023201320032034AA5EF03F0D6
:100738000AAE029E000EABEF03F0010ECDDCABEF6C
:1007480003F0020E39DDABEF03F0040E76DC120085
:10075800FF0E1E6EFF0E1F6EFF0E206EFF0E216E27
:10076800C26A1D1C006E0050C116070EC012C08E52
:04077800C280120029
:10077C00C26A1D1C006E0050C116070EC012C08E3E
:10078C0031C000F000360090003600900050C212CC
:10079C00C28022DDC282C2A201D0FDD7C4CF01F03B
:0E07AC00006AC3500012000E0112C29012002B
:1007BA000050086E0150006E016A026A036A0B6AF1
:1007CA000C6A960E036E0A6A00C001F008C000F0B7
:0807DA00086A026A8BDC1200C0
:1007E20096EC04F0928A0E0EC16E54DD010E376E45
:1007F20038DC0C0E376E35DC010E316E010E326EB6
:10080200170E336E000E346E08DDA5DF040E316E56
:10081200B4DFD2DF000E046E000E056E480E066EC7
:10082200850E076E08DF000E046EC00E056E7F0E89
:10083200066E880E076E79DD00C02DF001C02EF025
:1008420002C02FF003C030F0000E046E000E056EE1
:10085200200E066E820E076E2DC000F02EC001F033
:100862002FC002F030C003F060DD19DE300E00262A
:1008720000C023F02DC000F02EC001F02FC002F006
:1008820030C003F00CDE0A0E046E000E056E70DE40
:1008920008C000F009C001F0300E0024246E2E0EB4
:1008A200256E2DC000F02EC001F02FC002F030C026
:1008B20003F0000E046E000E056E200E066E820E10
:1008C200076EB9DEECDD0A0E046E000E056E50DE18
:1008D20008C000F009C001F0300E0024266E276A1D
:1008E200010E316E070E326E230E336E000E346E21
:1008F20094DC010E316E0B0E326E150E336E000E4D
:10090200346E8BDC030E0B6E080E0C6E770E0D6EC2
:100912000D2EFED70C2EFCD70B2EFAD777D7FFD78A
:10092C0010EE15F0090E006E010E016E220EF66E21
:0E093C00090EF76E000EF86E06EC01F01200C8
:02092200430090
:0609240054656D703A00FD
:01092A00309C
:020000040030CA
:0E000000000C1F1EFF8381FF0FC00FE00F409A
:00000001FF
