:1000000085EF04F00000000000EF00F000000000A9
:0A0010000000000000000000F3D71C
:10001C000F0E0C6E470E0D6E0D2EFED70C2EFCD750
:06002C00000000001200BC
:0A003200210E0D6E0D2EFED71200F8
:06003C00000000001200AC
:100042000B840BAE2CEF00F0010E036E026A016A04
:0A005200006A0A360232FF0E1200A7
:0E005C00026A016A006A086A036A000E120056
:10006A0037BE02D08A9601D08A8637BC02D08A94DB
:10007A0001D08A8437BA02D08A9201D08A8237B8EC
:10008A0002D08A9001D08A8022B002D08A8801D018
:10009A008A988A8ACEDF8A9A37B602D08A9601D09F
:1000AA008A8637B402D08A9401D08A8437B202D0C1
:1000BA008A9201D08A8237B002D08A9001D08A808F
:1000CA0022B002D08A8801D08A988A8AB2DF8A9AB4
:0C00DA0022A002D09EDF01D0A7DF1200A0
:0800E6000AAE029E000E12009A
:1000EE000134083609360450085E0550D8A0053C88
:1000FE00095E003601360F0E0C6E013408360936D5
:10010E00045000A006D0085E0550D8A0053C095E3C
:10011E0005D008260550D8B0053C09260036013614
:10012E000C2EEBD700B006D0045008260550D8B0E0
:08013E00053C09260000120037
:0C014600229036C037F08EDF22801200BD
:0C0152000E0E0D6E0D2EFED700001200E8
:08015E000B6A0B86FF0E120074
:100166000B800BAEBFEF00F0026A0AAEFF0E026E06
:0C017600016E006E0A360232FF0E12000D
:100182000B820BAECBEF00F00368026801680068D7
:080192000A360232FF0E1200D2
:10019A000C6A0E6A0250D8A4E6EF00F001C002F021
:1001AA0000C001F0006A0E860250D8A4E6EF00F003
:1001BA0001C002F0016A0E960E880250D8B4F8EF18
:1001CA0000F00E50035ED8A4D8A0FDEF00F0D8903E
:1001DA0002BE02EF01F0003601360236032EEDEFC1
:1001EA0000F0FDEF00F0010E0C6E33DF05EF01F0B9
:1001FA00020E0C6E21DF05EF01F0040E0C6E6EDFAD
:02020A001200E0
:10020C000450000A08E10550000A05E1FF0E006EDB
:10021C007F0E016E57D00D6A096A086A01500010F2
:10022C00D8B4000C015005180A6E0ABE0D1E0B6ADC
:10023C0005AE05D0041E051E042AD8B4052A01AE4D
:10024C0005D0001E011E002AD8B4012A0150051049
:10025C000A6E0ABE10D045DF0BB020D00DAE000CDC
:10026C00001E011E002AD8B4012A081E091E082AE5
:10027C00D8B4092A000C05AE0DD001BE07D0015030
:10028C00096E0050086E016A006AE8D7016A006ABC
:10029C00002A000C011E001E0B2ADDD7082AD8B438
:1002AC00092A0450085CD8A4D9D70550095CD8A4F5
:1002BC00D5D7096A086A002AD8B4012A01AECED76C
:0602CC000000FF0C12000F
:1002D2000FD0800E316E19D0C00E316E16D0940E32
:1002E200316E13D0D40E316E10D0800E316E0DD01F
:1002F2003150010AEEE03150020AEEE03150030AB9
:10030200EEE03150040AEEE0F0D73204006E3150D4
:10031200002600C031F0228000C037F0A5DE229016
:0A03220033C037F0A1DE2280120084
:10032C000900F5CFE6FF0006FBE10106F9E112003A
:10033C00939A939893909392939493968A9A8A987B
:10034C008A968A948A928A9063DE62DE61DE8A8261
:10035C008A808A8A6DDE8A9A5BDE8A8A69DE8A9A4C
:10036C0057DE8A8A65DE8A9A53DE8A908A8A60DE34
:10037C008A9A4EDE8A8A5CDE8A9A8A928A868A8A6F
:10038C0057DE8A9A45DE8A968A808A8A51DE8A9A54
:10039C008A908A8A4DDE8A9A3BDE8A8A49DE8A9A5C
:1003AC008A808A8A45DE8A9A33DE8A908A8A40DE7F
:1003BC008A9A8A868A848A828A808A8A39DE8A9A8A
:0603CC0027DE2280120072
:1003D2000FD0800E316E19D0C00E316E16D0940E31
:1003E200316E13D0D40E316E10D0800E316E0DD01E
:1003F2003150010AEEE03150020AEEE03150030AB8
:10040200EEE03150040AEEE0F0D73204006E3150D3
:10041200002600C031F000C037F026DE2290356A97
:1004220035503324E96E000E3420EA6EEE520BE0B2
:1004320035503324E96E000E3420EA6EEECF36F0EA
:0A04420081DE352AEDD7228012007A
:10044C000050086E0150006E016A026A036A0B6A62
:10045C000C6A960E036E0A6A00C001F008C000F028
:08046C00086A026A94DE120026
:100474000450000A12E10550000A0FE10650000A78
:100484000CE10750000A09E1FF0E006EFF0E016E39
:100494007F0E026EFF0E036EA4D0086A096A07502D
:1004A400D8B4E5EF02F00350D8B4E9EF02F00250FB
:1004B40006180A6E028E068E0E6A02C008F001C08B
:1004C4000CF000C00DF004500D5E0550D8A0053CA2
:1004D4000C5E0650D8A0063C085E086A0C6A0D6AD9
:1004E400D8A07CEF02F0D8900232013200320832F8
:1004F400010E0E6E0750035ED8A089EF02F07E0E47
:100504000E240326D8B0EDEF02F08FEF02F07E0E3A
:100514000E240326D8A0F1EF02F0180E0B6E0D3650
:100524000C3608360036013602360E360450005EAC
:100534000550D8A0053C015E0650D8A0063C025EDA
:1005440006340E120EA0AAEF02F00D80B5EF02F0F1
:10055400045000260550D8B0053C01260650D8B0FA
:10056400062802260D900B2E91EF02F0DBEF02F02D
:10057400D8900036013602360E360450005E05501F
:10058400D8A0053C015E0650D8A0063C025E0634A5
:100594000E10010B0D26D8B00C2AD8B4082AD8A402
:1005A400DBEF02F008320C320D32032AD8B4EDEF3F
:1005B40002F00AAE089E0850026E0C50016E0D50F7
:1005C400006EF3EF02F0010EC8DDF3EF02F0020E4D
:1005D40043DDF3EF02F0040ED2DDF3EF02F0080E78
:0405E4002EDD1200F6
:1005E800086A096A000E0762036479EF03F0025093
:1005F80006180A6E075003267E0ED8A00AEF03F0ED
:10060800035ED8B07DEF03F00EEF03F0035ED8A0D1
:1006180081EF03F0028E068E02C00EF001C00BF0CF
:1006280000C00DF000500402F4CF0CF00150050298
:10063800F4CF00F0F3CF08F00402F3500C26F45086
:100648000822000E00220D500502F3500C26F4502B
:100658000822000E002202500402F3500826F4502B
:10066800002202500502016A000E0122F350002602
:10067800F45001220D500602F3500826F4500022CF
:10068800026A000E012202220B500602F3500026D5
:10069800F4500122000E02220E500602F3500126E9
:1006A800F450022202BE61EF03F00836003601362C
:1006B80002360306D8B481EF03F074EF03F0D88054
:1006C800800E08640030000E002201220222D8A009
:1006D80074EF03F0023201320032034A7DEF03F077
:1006E8000AAE029E000E83EF03F0010EB3DC83EF27
:1006F80003F0020E42DD83EF03F0040E9EDC1200CD
:100708000A6A0350D8A40A800750D8A40A820A505B
:10071800D8B4E7EF03F0030AD8B4A0EF03F00AB0A7
:100728009BEF03F006AEE5EF03F0E3EF03F002AE54
:10073800E3EF03F0E5EF03F00250800B0A6E029E30
:100748000650800B069E0A18D8B4B1EF03F00A5081
:10075800D8B4E3EF03F0E5EF03F00750035CD8B437
:10076800BBEF03F0D8A0D7EF03F0DDEF03F006509E
:10077800025CD8B4C5EF03F0D8A0D7EF03F0DDEFE3
:1007880003F00550015CD8B4CFEF03F0D8A0D7EF41
:1007980003F0DDEF03F00450005CD8B4E7EF03F09A
:1007A800D8B0DDEF03F00A52D8B4E5EF03F0E3EF79
:1007B80003F00A52D8B4E3EF03F0E5EF03F0D88072
:0E07C8001200D8901200D880D88412001200BF
:1007D6000B6A0350D8B431EF04F002500A6E028E51
:1007E6008E0E035E03AE35EF04F0036C080E035C59
:1007F600D8A010EF04F0036E013602C001F0026AC1
:10080600080E035CD8A010EF04F0036E0136016AEF
:100816000350D8A4D8901AEF04F00350D8B41AEFB6
:1008260004F0D89002320132032E14EF04F00BBC10
:1008360001A027EF04F0D8A027EF04F0012AD8B4CE
:10084600022A02BE44EF04F00AAE49EF04F0021E8B
:10085600011E012AD8B4022A49EF04F0026A016A8D
:1008660049EF04F00B800BAE4DEF04F0026A0AAEBE
:100876004DEF04F0FF0E026E016E0A3602324DEFA6
:1008860004F0010E0C6E6CDC4FEF04F0000E0C6EE3
:100896004FEF04F0FF0E0C6E0150006E0250016E19
:0208A60012003E
:1008A800FF0E1E6EFF0E1F6EFF0E206EFF0E216ED6
:1008B800C26A1D1C006E0050C116070EC012C08E01
:0408C800C2801200D8
:1008CC00C26A1D1C006E0050C116070EC012C08EED
:1008DC0031C000F000360090003600900050C2127B
:1008EC00C28031DCC282C2A201D0FDD7C4CF01F0DC
:0E08FC00006AC3500012000E0112C2901200DA
:10090A0051EC05F0928A0E0EC16E13DD010E376EA0
:10091A0035EC00F00C0E376E35EC00F0010E316E3E
:10092A00010E326E170E336E000E346E4DDDB7DFD8
:10093A00040E316EC6DF85DD000E046E000E056EF4
:10094A00480E066E850E076E4ADE000E046EC00E55
:10095A00056E7F0E066E880E076E87DD00C023F0D7
:10096A0001C024F002C025F003C026F0000E046E78
:10097A00000E056E480E066E850E076EC0DE000E6E
:10098A00D8B0010E006E00520CE0310E276E300E08
:10099A00286E300E296E2E0E2A6E300E2B6E2C6AA1
:1009AA004FD0000E046E000E056E200E066E820EEB
:1009BA00076E23C000F024C001F025C002F026C053
:1009CA0003F053DD03DF300E002600C027F023C0FA
:1009DA0000F024C001F025C002F026C003F0F6DEC4
:1009EA000A0E046E000E056E0CDC08C000F009C089
:1009FA0001F0300E0024286E2E0E296E23C000F05E
:100A0A0024C001F025C002F026C003F0000E046ED7
:100A1A00000E056E200E066E820E076EE0DDD6DE33
:100A2A000A0E046E000E056E06EC01F008C000F016
:100A3A0009C001F0300E00242A6E200E2B6E2C6A9B
:100A4A00010E316E070E326E270E336E000E346EB3
:100A5A00BBDC010E316E0C0E326EDF0E336E34DCEF
:100A6A00010E316E0D0E326E150E336E000E346E9F
:100A7A00ABDC030E0B6E080E0C6E770E0D6E0D2E90
:0E0A8A00FED70C2EFCD70B2EFAD752D7FFD773
:100AA20010EE15F0090E006E010E016E980EF66E34
:0E0AB2000A0EF76E000EF86E96EC01F01200C0
:020A9800430019
:060A9A0054656D703A0086
:010AA0003025
:020000040030CA
:0E000000000C1F1EFF8381FF0FC00FE00F409A
:00000001FF
